S00D000054696D65722E7372656316
S11300000C9466000C9470000C9470000C947000B6
S11300100C9470000C9470000C9470000C9470009C
S11300200C9470000C9470000C9470000C9470008C
S11300300C9470000C948E000C9470000C9470005E
S11300400C9470000C9470000C9470000C9470006C
S11300500C9470000C9470000C9470000C9470005C
S11300600C9470000C9470000C9470000C9470004C
S11300700C9470000C9470000C9470000C9470003C
S11300800C9470000C9470000C9470000C9470002C
S11300900C9470000C9470000C9470000C9470001C
S11300A00C9470000C9470000C9470000C9470000C
S11300B00C9470000C9470000C9470000C947000FC
S11300C00C9470000C9470000C94700011241FBEEA
S11300D0CFEFD8E0DEBFCDBF0E9472000C94A90020
S11300E00C9400008AB180638AB93F9A0B9A8BB151
S11300F080638BB9479A139AE1E8F0E080818C60C1
S11301008083EFE6F0E0808182608083789484E2EB
S113011094EF9093890080938800FFCF1F920F92F1
S11301200FB60F9211248F939F939BB180E289277E
S11301308BB99BB180E189278BB982B182B988B12F
S1130140805888B99F918F910F900FBE0F901F9088
S10901501895F894FFCF9E
S9030000FC
