S00B00005350492E737265632D
S11300000C9466000C9483000C9483000C9483007D
S11300100C9483000C9483000C9483000C94830050
S11300200C9483000C9483000C9483000C94830040
S11300300C9483000C9483000C9483000C94830030
S11300400C9483000C9483000C9483000C94830020
S11300500C9483000C9483000C9483000C94830010
S11300600C9483000C9483000C9483000C94830000
S11300700C9483000C9483000C9483000C948300F0
S11300800C9483000C9483000C9483000C948300E0
S11300900C9483000C9483000C9483000C948300D0
S11300A00C9483000C9483000C9483000C948300C0
S11300B00C9483000C9483000C9483000C948300B0
S11300C00C9483000C9483000C94830011241FBEB1
S11300D0CFEFD8E0DEBFCDBF18E0A0E0B1E0EEE0A6
S11300E0F7E002C005900D92A230B107D9F728E0DD
S11300F0A2E0B8E001C01D92A630B207E1F70E9469
S113010072030C9485030C940000882311F0129A56
S1130110089512980895CF93C82F80E00E94850017
S11301208C2F0E947E03CF910895CF93C82F81E036
S11301300E9485008C2F0E947E03CF9108950F9317
S11301401F93CF93DF938A30D1F48091020890916A
S11301500308892B51F480E20E949F0080910208D9
S113016090910308892B09F4E1C080E20E949F006A
S11301708091020890910308892BB9F7D7C0803287
S113018008F4D4C08F3758F4082F10E0000F111F63
S1130190000F111F000F111F00501E4F12C0803A94
S11301A008F4C4C0813C58F0082F10E0000F111F60
S11301B0000F111F000F111F0050154002C000E076
S11301C010E0C0E0D0E0F801A781B0E00C2E02C03E
S11301D0B595A7950A94E2F7B695BA2FAA27B795CD
S11301E0A795F801408150E00C2E02C05595479523
S11301F00A94E2F741704A2BF8019181E92FF0E06B
S11302000C2E02C0F595E7950A94E2F7E170FF27FA
S1130210EE0FFF1F4E2BF8019281692F70E00C2E18
S113022002C0759567950A94E2F761707727660FA7
S1130230771F660F771F462B9381892F90E00C2E32
S113024002C0959587950A94E2F781709927880FE3
S1130250991F880F991F880F991F242F282B948189
S1130260492F50E00C2E02C0559547950A94E2F7A9
S11302704170552742955295507F5427407F54270B
S1130280422BF8019581292F30E00C2E02C03595C0
S113029027950A94E2F721703327220F331F229502
S11302A03295307F3227207F3227242BF801868134
S11302B090E00C2E02C0959587950A94E2F7817020
S11302C09927002496958795079496958795079482
S11302D0982F802D822B0E9495002196C830D1053D
S11302E009F071CF809102089091030801968F70F4
S11302F09078992324F40197806F9F6F01969093CF
S1130300030880930208892B89F480910408909152
S11303100508019683709078992324F401978C6FD3
S11303209F6F01969093050880930408DF91CF9105
S11303301F910F910895CF93DF93EC018881882357
S113034031F021960E949F0089918111FBCFDF91AA
S1130350CF910895CF93DF9380910408909105087D
S1130360892B51F480E098E00E949B01809104085D
S113037090910508892B89F080E098E00E949B0108
S11303808091040890910508892BB1F706C080E29A
S11303900E949F002197D9F703C0C0E4D0E0F7CFB3
S11303A0DF91CF9108952F923F924F925F926F9277
S11303B07F928F929F92AF92BF92CF92DF92EF92F1
S11303C0FF920F931F93CF93DF93CDB7DEB7679759
S11303D00FB6F894DEBF0FBECDBF9B8B8A8B9E5F9A
S11303E09D8B8C8BC5C0EC81FD816190FD83EC837A
S11303F0EA81FB814190FB83EA83EE81FF81A19036
S1130400FF83EE83E885F985C190F987E887EA855B
S1130410FB85E190FB87EA87EC85FD850191FD87EB
S1130420EC87EE85FF858191FF87EE87E889F9895E
S11304308190F98BE88B212C312C912C712C512C2F
S1130440B12CD12CF12C10E0282F30E03F8B2E8BD7
S1130450D401022C02C0B595A7950A94E2F7B6958B
S1130460BA2FAA27B795A795A301022C02C05595C8
S113047047950A94E2F741704A2BF201022C02C01C
S1130480F595E7950A94E2F7E170FF27EE0FFF1F59
S11304904E2BB501022C02C0759567950A94E2F7BC
S11304A061707727660F771F660F771F462BC6018B
S11304B0022C02C0959587950A94E2F781709927DA
S11304C0880F991F880F991F880F991F242F282B95
S11304D0A701022C02C0559547950A94E2F7417092
S11304E0552742955295507F5427407F5427422BDD
S11304F09801022C02C0359527950A94E2F72170E1
S11305003327220F331F22953295307F3227207FE5
S11305103227242B8E899F89022C02C095958795BA
S11305200A94E2F781709927002496958795079499
S1130530969587950794982F802D822B0E9495007D
S11305403FEF231A330A88E02816310409F080CFDC
S1130550998191509983911146CFEA89FB89E0589A
S1130560FF4FFB8BEA8B2C893D89E217F30779F166
S11305708A899B8940969B838A83EA89FB89B09602
S1130580FF83EE832A893B89205D3F4F3987288783
S11305908A899B89805C9F4F9B878A87EA89FB892C
S11305A0E05BFF4FFD87EC872A893B89205A3F4F48
S11305B03F872E878A899B8980599F4F998B888B87
S11305C0EA89FB89FD83EC83F0E1F9830CCF67961C
S11305D00FB6F894DEBF0FBECDBFDF91CF911F9150
S11305E00F91FF90EF90DF90CF90BF90AF909F90CE
S11305F08F907F906F905F904F903F902F900895D1
S113060040988FE39CE90197F1F700C00000409AFD
S11306108FE39CE90197F1F700C000000895389A30
S11306200A9A0E94790381E00E9485000E940003D7
S11306308EEA0E948B0085ED0E948B0080EF0E9461
S11306408B0088EA0E948B0080E20E948B0083ED7D
S11306500E948B0080E00E948B008DE80E948B003A
S113066084E10E948B0080E20E948B0080E00E9463
S11306708B0081EA0E948B0085EA0E948B0088EC43
S11306800E948B008FE70E948B0082E20E948B0005
S113069080E00E948B0083E00E948B008AED0E9420
S11306A08B0082E00E948B0081E80E948B008FEF18
S11306B00E948B0089ED0E948B0081E10E948B00D7
S11306C08BED0E948B0080E20E948B0086EA0E94E0
S11306D08B0084EA0E948B008FEA0E948B000E94A8
S11306E0AA0108950E940F0380E096E00E94D301BE
S11306F0FFCF80EB84B981E58CBD08952C988EBD25
S11107000DB407FEFDCF2C9A0895F894FFCF98
S113070E07001C36637F630070001C36637F630032
S113071E1C36003E637F63006E3B003E637F6300C6
S113072E631C36637F6363000C0C001E333F33007F
S113073E7C36337F333373001E3303331E18301E5F
S113074E07003F061E063F0038003F061E063F0008
S113075E0C123F061E063F0036003F061E063F00E3
S113076E07001E0C0C0C1E0038001E0C0C0C1E0078
S113077E0C12001E0C0C1E0033001E0C0C0C1E0062
S113078E3F666F6F66663F003F0033373F3B330073
S113079E0E00183C663C18007000183C663C1800AD
S11307AE3C66183C663C18006E3B003E63633E009C
S11307BEC3183C66663C180000361C081C36000044
S11307CE5C36737B6F361D000E00666666663C00F3
S11307DE7000666666663C003C66006666663C00B3
S11307EE3300333333331E00700066663C18180032
S11307FE0F063E66663E060F001E331F331F0303AD
S113080E07001E303E337E0038001E303E337E001D
S113081E7EC33C607C66FC006E3B1E303E337E0025
S113082E33001E303E337E000C0C1E303E337E00F1
S113083E0000FE30FE33FE0000001E03031E301CBB
S113084E07001E333F031E0038001E333F031E00F5
S113085E7EC33C667E063C0033001E333F031E00FF
S113086E07000E0C0C0C1E001C000E0C0C0C1E00B3
S113087E3E631C1818183C0033000E0C0C0C1E00A2
S113088E1B0E1B303E331E00001F001F333333007C
S113089E0007001E33331E000038001E33331E00C3
S11308AE1E33001E33331E006E3B001E33331E00F8
S11308BE0033001E33331E001818007E0018180073
S11308CE00603C767E6E3C060007003333337E00B8
S11308DE0038003333337E001E33003333337E004F
S11308EE0033003333337E0000380033333E301F81
S11308FE0000063E663E060000330033333E301FD2
S113090E0000000000000000183C3C1818001800FD
S113091E363600000000000036367F367F3636004D
S113092E0C3E031E301F0C00006333180C6663006C
S113093E1C361C6E3B336E000606030000000000DE
S113094E180C0606060C1800060C1818180C0600CF
S113095E00663CFF3C660000000C0C3F0C0C0000D3
S113096E00000000000C0C060000003F0000000018
S113097E00000000000C0C006030180C060301008F
S113098E3E63737B6F673E000C0E0C0C0C0C3F0029
S113099E1E33301C06333F001E33301C30331E0012
S11309AE383C36337F3078003F031F3030331E001F
S11309BE1C06031F33331E003F3330180C0C0C007F
S11309CE1E33331E33331E001E33333E30180E00D7
S11309DE000C0C00000C0C00000C0C00000C0C069F
S11309EE180C0603060C180000003F00003F000020
S11309FE060C1830180C06001E3330180C000C00B0
S1130A0E3E637B7B7B031E000C1E33333F3333006C
S1130A1E3F66663E66663F003C66030303663C0023
S1130A2E1F36666666361F007F46161E16467F0004
S1130A3E7F46161E16060F003C66030373667C0083
S1130A4E3333333F333333001E0C0C0C0C0C1E00AB
S1130A5E7830303033331E006766361E36666700D4
S1130A6E0F06060646667F0063777F7F6B6363001F
S1130A7E63676F7B736363001C36636363361C00AA
S1130A8E3F66663E06060F001E3333333B1E3800A8
S1130A9E3F66663E366667001E33070E38331E0009
S1130AAE3F2D0C0C0C0C1E003333333333333F0009
S1130ABE33333333331E0C006363636B7F7763000E
S1130ACE6363361C1C3663003333331E0C0C1E005A
S1130ADE7F6331184C667F001E06060606061E004E
S1130AEE03060C18306040001E18181818181E0043
S1130AFE081C36630000000000000000000000FF28
S1130B0E0C0C18000000000000001E303E336E0076
S1130B1E0706063E66663B0000001E3303331E00C6
S1130B2E3830303E33336E0000001E333F031E0058
S1130B3E1C36060F06060F0000006E33333E301FC0
S1130B4E0706366E666667000C000E0C0C0C1E0053
S1130B5E300030303033331E070666361E366700DB
S1130B6E0E0C0C0C0C0C1E000000337F7F6B63000C
S1130B7E00001F333333330000001E3333331E00A3
S1130B8E00003B66663E060F00006E33333E30783F
S1130B9E00003B6E66060F0000003E031E301F0071
S1130BAE080C3E0C0C2C18000000333333336E004B
S1130BBE00003333331E0C000000636B7F7F36005E
S1130BCE000063361C36630000003333333E301F9F
S1130BDE00003F190C263F00380C0C070C0C380093
S1130BEE1818180018181800070C0C380C0C0700ED
S1130BFE6E3B00000000000000000000000000003A
S1130C0E00000000000000000000000000000000D2
S1130C1E0000FF01000000000000000000000000C2
S1130C2E00E0FF0F000000007038DE3F3E180000A9
S1130C3E00F0FF1F00000000D878DE3B331C0000DC
S1130C4E00FCFF7F000000008C798E21231C000025
S1130C5E00FE00FE000000008C798EA9233C0000EB
S1130C6E003F00F8010000008C798F89033C0000DE
S1130C7E001F00F0010000008C798D8F03360000F8
S1130C8E800F00E0030000008CF98D8B7B32000096
S1130C9EC00700C0070000008CD98D89333E0000C8
S1130CAEC0030080070000008CD98DA133720000B0
S1130CBEE00300800F0000008CD98DA13372000078
S1130CCEE0FFC7FF0F000000D8D98D313363000059
S1130CDEE0FFC7FF0F000000F8FCDE3F3FF7000007
S1130CEEE0FFC7FF0F00000000000000000000003E
S1130CFEE0FFC7FF0F00000000000000000000002E
S1130D0EE0E1000E0E0000000000000000000000F4
S1130D1EE0E1000E0E0000000000000000000000E4
S1130D2EE0C101070F00C0F37F3FBCE3FBF7EF0701
S1130D3EE0C101070F008033676E3833DBE7EC0F39
S1130D4EE08183030F00803347C61819CA64C80CA8
S1130D5EE08383830F00801357C69838CA64CA1C75
S1130D6EC003C7810700001317C6D870C060C21C29
S1130D7EC007C7C1070000131F7EF8E0C1E0C31C03
S1130D8E800FEEE003000013177EF8C0C3E0C21C10
S1130D9E021FFEF08300001F1766D881C360C21CB9
S1130DAE1E3F7CF8F100000F47669819C360C81CFB
S1130DBEFE7FFEFDFF00000E4766981BC260C80C46
S1130DCEFE7FFEFDFF00000E476E991BC361CC0C27
S1130DDEFE7FFEFDFF00008E7FFFBDFFE3F3EF07F6
S1130DEEFE7FFEFDFF00000000000000000000007A
S1130DFE00000000000000000000000000000000E1
S1050E0E0A00D4
S9030000FC
