S011000053696D6F6E536179732E737265636D
S11300000C9466000C9483000C9483000C9483007D
S11300100C9483000C9483000C9483000C94830050
S11300200C9483000C9483000C9483000C94830040
S11300300C9483000C9483000C9483000C94830030
S11300400C9483000C9483000C9483000C94830020
S11300500C9483000C9483000C9483000C94830010
S11300600C9483000C9483000C9483000C94830000
S11300700C9483000C9483000C9483000C948300F0
S11300800C9483000C9483000C9483000C948300E0
S11300900C9483000C9483000C9483000C948300D0
S11300A00C9483000C9483000C9483000C948300C0
S11300B00C9483000C9483000C9483000C948300B0
S11300C00C9483000C9483000C94830011241FBEB1
S11300D0CFEFD8E0DEBFCDBF16E0A0E0B1E0EAEAA2
S11300E0F9E002C005900D92AA39B107D9F726E0CC
S11300F0AAE9B6E001C01D92AE39B207E1F70E9449
S113010055020C94D3040C940000882311F0129A25
S1130110089512980895CF93C82F80E00E94850017
S11301208C2F0E94E503CF910895CF93C82F81E0CF
S11301300E9485008C2F0E94E503CF9108950F93B0
S11301401F93CF93DF938A30D1F480919A069091D4
S11301509B06892B51F480E20E949F0080919A06AD
S113016090919B06892B09F4E1C080E20E949F00D4
S113017080919A0690919B06892BB9F7D7C080325B
S113018008F4D4C08F3758F4082F10E0000F111F63
S1130190000F111F000F111F0C5F1D4F12C0803A7A
S11301A008F4C4C0813C58F0082F10E0000F111F60
S11301B0000F111F000F111F0C5F144002C000E05C
S11301C010E0C0E0D0E0F801A781B0E00C2E02C03E
S11301D0B595A7950A94E2F7B695BA2FAA27B795CD
S11301E0A795F801408150E00C2E02C05595479523
S11301F00A94E2F741704A2BF8019181E92FF0E06B
S11302000C2E02C0F595E7950A94E2F7E170FF27FA
S1130210EE0FFF1F4E2BF8019281692F70E00C2E18
S113022002C0759567950A94E2F761707727660FA7
S1130230771F660F771F462B9381892F90E00C2E32
S113024002C0959587950A94E2F781709927880FE3
S1130250991F880F991F880F991F242F282B948189
S1130260492F50E00C2E02C0559547950A94E2F7A9
S11302704170552742955295507F5427407F54270B
S1130280422BF8019581292F30E00C2E02C03595C0
S113029027950A94E2F721703327220F331F229502
S11302A03295307F3227207F3227242BF801868134
S11302B090E00C2E02C0959587950A94E2F7817020
S11302C09927002496958795079496958795079482
S11302D0982F802D822B0E9495002196C830D1053D
S11302E009F071CF80919A0690919B0601968F70C8
S11302F09078992324F40197806F9F6F01969093CF
S11303009B0680939A06892B89F480919C06909190
S11303109D06019683709078992324F401978C6F3D
S11303209F6F019690939D0680939C06DF91CF91D9
S11303301F910F910895CF93DF93EC018881882357
S113034031F021960E949F0089918111FBCFDF91AA
S1130350CF910895CF93DF9380919C0690919D0651
S1130360892B51F48BE596E00E949B0180919C06B9
S113037090919D06892B89F08BE596E00E949B0164
S113038080919C0690919D06892BB1F706C080E26E
S11303900E949F002197D9F703C0C0E4D0E0F7CFB3
S11303A0DF91CF91089540988FE39CE90197F1F78D
S11303B000C00000409A8FE39CE90197F1F700C068
S11303C000000895389A0A9A0E94E00381E00E948E
S11303D085000E94D3018EEA0E948B0085ED0E9465
S11303E08B0080EF0E948B0088EA0E948B0080E2E1
S11303F00E948B0083ED0E948B0080E00E948B00A2
S11304008DE80E948B0084E10E948B0080E20E94B0
S11304108B0080E00E948B0081EA0E948B0085EAB9
S11304200E948B0088EC0E948B008FE70E948B0057
S113043082E20E948B0080E00E948B0083E00E9495
S11304408B008AED0E948B0082E00E948B0081E881
S11304500E948B008FEF0E948B0089ED0E948B001D
S113046081E10E948B008BED0E948B0080E20E9450
S11304708B0086EA0E948B0084EA0E948B008FEA3C
S11304800E948B000E94AA0108958AB180638AB9F0
S11304900B9A8BB180638BB9139A08953998089895
S11304A0419A82B1836082B90895CF93DF93CDB727
S11304B0DEB764970FB6F894DEBF0FBECDBF0E94BF
S11304C045020E944E020E94E20184E096E00E94EE
S11304D09B012FEF4BE752E9215040405040E1F798
S11304E000C0000088248394FF24F394CE01019675
S11304F06C01482E5D2C0F2EF3E0AF2EB12CF02DA5
S11305006894662463F86894992494F8212C689478
S1130510332431F8722C0E94AA018BE196E00E94E8
S11305209B019FEFE7EAF1E69150E040F040E1F7EC
S113053000C0000080E090E00E946504FF2009F400
S113054038C1042D152D6894EE24E5F80E9460044A
S1130550B5010E94EC03F80181938F01811110C051
S11305608BB18E258BB9FFEF29E648E1F15020408D
S11305704040E1F700C000008BB18E258BB923C049
S1130580813081F48BB189258BB95FEF89E698E1DD
S1130590515080409040E1F700C000008BB18925A4
S11305A08BB911C0823079F482B1862582B9EFEF1C
S11305B0F9E628E1E150F0402040E1F700C00000F6
S11305C082B1862582B94FEF59E688E14150504007
S11305D08040E1F700C00000802F8C198F1508F4CB
S11305E0B5CFDDC0319918C0EBE0F0E0EC0FFD1F92
S11305F0E80FF11D10828F5F9BB192279BB99FEF8B
S1130600E9E6F8E19150E040F040E1F700C0000075
S11306109BB192279BB933C0009918C0EBE0F0E07E
S1130620EC0FFD1FE80FF11D30838F5F9BB19925FF
S11306309BB94FEF59E698E1415050409040E1F7A3
S113064000C000009BB199259BB919C0019917C03E
S1130650EBE0F0E0EC0FFD1FE80FF11D30828F5F3F
S113066092B1962592B9EFEFF9E648E1E150F040F6
S11306704040E1F700C0000092B1962592B98F1571
S113068008F4B0CF882361F0DE011B96E42DF52D2C
S113069021919D912913872C9E2F9C199817C0F3A3
S11306A00E94AA01882009F453C059E05F15F0F0B4
S11306B0F39486E396E00E949B018FEF93EDE0E3D1
S11306C081509040E040E1F700C000000E94AA0180
S11306D08FE396E00E949B01FFEF23ED40E3F1508E
S11306E020404040E1F700C0000028C05AE0F51265
S11306F025C08AE496E00E949B018AE30E949F0041
S11307008DE596E00E949B018FEF93E2E4EF815028
S11307109040E040E1F700C000000E94AA0186E694
S113072096E00E949B01FFEF27EA41E6F15020404A
S11307304040E1F700C00000FF24F3945FEF87EA34
S113074091E6515080409040E1F700C00000E3CEB4
S113075082E796E00E949B018FE28F0D0E949F002A
S11307608DE596E00E949B01EFEFF3E224EFE15068
S1130770F0402040E1F700C000000E94AA0186E892
S113078096E00E949B014FEF57EA81E641505040AA
S11307908040E1F700C00000FF24F394BCCE0E9427
S11307A0AA018FE896E00E949B01822D31E020E2AD
S11307B019CF0E94AA018FE896E00E949B0170CF96
S11307C080EB84B981E58CBD08952C988EBD0DB461
S11307D007FEFDCF2C9A089597FB072E16F400947C
S11307E007D077FD09D00E94000407FC05D03EF431
S11307F0909581959F4F0895709561957F4F0895C9
S1130800AA1BBB1B51E107C0AA1FBB1FA617B70732
S113081010F0A61BB70B881F991F5A95A9F780954E
S11308209095BC01CD0108958F929F92AF92BF9293
S1130830CF92DF92EF92FF92CF93DF93EC01688126
S113084079818A819B81611571058105910521F466
S113085064E279ED8BE597E02DE133EF41E050E080
S11308600E94700449015A019B01AC01A7EAB1E45A
S11308700E948F046B017C01ACEEB4EFA5019401DE
S11308800E949D04DC01CB018C0D9D1DAE1DBF1D7E
S1130890B7FF03C00197A109B04888839983AA834D
S11308A0BB839F77DF91CF91FF90EF90DF90CF9044
S11308B0BF90AF909F908F9008950E941404089564
S11308C080E091E00E9414040895A0E0B0E08093D9
S11308D0000190930101A0930201B09303010895D4
S11308E0052E97FB1EF400940E94870457FD07D041
S11308F00E94A20407FC03D04EF40C948704509584
S11309004095309521953F4F4F4F5F4F08959095F7
S11309108095709561957F4F8F4F9F4F08950E94EA
S1130920C404A59F900DB49F900DA49F800D911DAC
S113093011240895B7FF0C948F040E948F04821B26
S1130940930B0895A1E21A2EAA1BBB1BFD010DC037
S1130950AA1FBB1FEE1FFF1FA217B307E407F5076B
S113096020F0A21BB30BE40BF50B661F771F881F47
S1130970991F1A9469F760957095809590959B01DD
S1130980AC01BD01CF010895A29FB001B39FC00186
S1130990A39F700D811D1124911DB29F700D811DA7
S10D09A01124911D0895F894FFCF6F
S11309AA0100000007001C36637F630070001C36D8
S11309BA637F63001C36003E637F63006E3B003E28
S11309CA637F6300631C36637F6363000C0C001E41
S11309DA333F33007C36337F333373001E330333A0
S11309EA1E18301E07003F061E063F0038003F0649
S11309FA1E063F000C123F061E063F0036003F0645
S1130A0A1E063F0007001E0C0C0C1E0038001E0CAC
S1130A1A0C0C1E000C12001E0C0C1E0033001E0CC3
S1130A2A0C0C1E003F666F6F66663F003F0033374B
S1130A3A3F3B33000E00183C663C18007000183C1B
S1130A4A663C18003C66183C663C18006E3B003E47
S1130A5A63633E00C3183C66663C180000361C08F3
S1130A6A1C3600005C36737B6F361D000E0066660A
S1130A7A66663C007000666666663C003C66006614
S1130A8A66663C003300333333331E0070006666F7
S1130A9A3C1818000F063E66663E060F001E331FFA
S1130AAA331F030307001E303E337E0038001E3016
S1130ABA3E337E007EC33C607C66FC006E3B1E3087
S1130ACA3E337E0033001E303E337E000C0C1E3053
S1130ADA3E337E000000FE30FE33FE0000001E039B
S1130AEA031E301C07001E333F031E0038001E334A
S1130AFA3F031E007EC33C667E063C0033001E3361
S1130B0A3F031E0007000E0C0C0C1E001C000E0CEA
S1130B1A0C0C1E003E631C1818183C0033000E0C03
S1130B2A0C0C1E001B0E1B303E331E00001F001F40
S1130B3A333333000007001E33331E000038001E0F
S1130B4A33331E001E33001E33331E006E3B001E59
S1130B5A33331E000033001E33331E001818007E80
S1130B6A0018180000603C767E6E3C0600070033CD
S1130B7A33337E000038003333337E001E330033B0
S1130B8A33337E000033003333337E0000380033BE
S1130B9A333E301F0000063E663E06000033003333
S1130BAA333E301F0000000000000000183C3C18CF
S1130BBA18001800363600000000000036367F366A
S1130BCA7F3636000C3E031E301F0C0000633318B8
S1130BDA0C6663001C361C6E3B336E00060603006B
S1130BEA00000000180C0606060C1800060C18185B
S1130BFA180C060000663CFF3C660000000C0C3F23
S1130C0A0C0C000000000000000C0C060000003F61
S1130C1A0000000000000000000C0C006030180CFA
S1130C2A060301003E63737B6F673E000C0E0C0CD7
S1130C3A0C0C3F001E33301C06333F001E33301C9D
S1130C4A30331E00383C36337F3078003F031F3080
S1130C5A30331E001C06031F33331E003F33301883
S1130C6A0C0C0C001E33331E33331E001E33333E6A
S1130C7A30180E00000C0C00000C0C00000C0C00C8
S1130C8A000C0C06180C0603060C180000003F00A2
S1130C9A003F0000060C1830180C06001E333018EA
S1130CAA0C000C003E637B7B7B031E000C1E33335B
S1130CBA3F3333003F66663E66663F003C66030385
S1130CCA03663C001F36666666361F007F46161E9C
S1130CDA16467F007F46161E16060F003C6603035F
S1130CEA73667C003333333F333333001E0C0C0CEE
S1130CFA0C0C1E007830303033331E006766361E03
S1130D0A366667000F06060646667F0063777F7FAE
S1130D1A6B63630063676F7B736363001C3663638F
S1130D2A63361C003F66663E06060F001E333333E5
S1130D3A3B1E38003F66663E366667001E33070E62
S1130D4A38331E003F2D0C0C0C0C1E003333333386
S1130D5A33333F0033333333331E0C006363636B23
S1130D6A7F7763006363361C1C3663003333331E98
S1130D7A0C0C1E007F6331184C667F001E060606A3
S1130D8A06061E0003060C18306040001E181818C8
S1130D9A18181E00081C366300000000000000003A
S1130DAA000000FF0C0C18000000000000001E30B8
S1130DBA3E336E000706063E66663B0000001E339D
S1130DCA03331E003830303E33336E0000001E33C6
S1130DDA3F031E001C36060F06060F0000006E3382
S1130DEA333E301F0706366E666667000C000E0C2B
S1130DFA0C0C1E00300030303033331E07066636C2
S1130E0A1E3667000E0C0C0C0C0C1E000000337FFF
S1130E1A7F6B630000001F333333330000001E333B
S1130E2A33331E0000003B66663E060F00006E3335
S1130E3A333E307800003B6E66060F0000003E0326
S1130E4A1E301F00080C3E0C0C2C18000000333313
S1130E5A33336E0000003333331E0C000000636B1F
S1130E6A7F7F3600000063361C366300000033338C
S1130E7A333E301F00003F190C263F00380C0C0784
S1130E8A0C0C38001818180018181800070C0C381D
S1130E9A0C0C07006E3B000000000000000000007C
S1130EAA0000000057656C636F6D6520746F0A5308
S1130EBA696D6F6E205361797321004865726520EC
S1130ECA636F6D657320746865200A73657175654F
S1130EDA6E63653A2000436F727265637421004E33
S1130EEA65787420726F756E6400596F7520776F18
S1130EFA6E210A596F7520676F743A0A0020706F61
S1130F0A696E74732E004E65772067616D65203AA9
S1130F1A2900596F75206C6F7374210A596F7520F3
S1130F2A676F743A0A004E65772067616D650059E8
S10D0F3A6F7572207475726E210049
S9030000FC
