S00B000050574D2E7372656325
S11300000C9466000C9478000C9478000C9478009E
S11300100C9478000C9478000C9478000C9478007C
S11300200C9478000C9478000C9478000C9478006C
S11300300C9478000C9478000C9478000C9478005C
S11300400C9478000C9478000C9478000C9478004C
S11300500C9478000C9478000C9478000C9478003C
S11300600C9478000C9478000C9478000C9478002C
S11300700C9478000C9478000C9478000C9478001C
S11300800C9478000C9478000C9478000C9478000C
S11300900C9478000C9478000C9478000C947800FC
S11300A00C9478000C9478000C9478000C947800EC
S11300B00C9478000C9478000C9478000C947800DC
S11300C00C9478000C9478000C94780011241FBED2
S11300D0CFEFD8E0DEBFCDBF21E0A0E0B1E001C0AA
S11300E01D92A230B207E1F70E947A000C94C1007D
S11300F00C9400008AB180638AB98BB180638BB998
S1130100419A109AE1E8F0E0808188608083A0E859
S1130110B0E08C9181608C938C91806F8C93808102
S113012081608083109288008FEF80938A00A8E812
S1130130B0E0EAE8F0E091E031990EC0809100016E
S113014081110CC08C91880F8F5F8C938081869570
S113015080839093000102C01092000100990EC0A8
S1130160809101018111E8CF8081880F8F5F8083A6
S11301708C9186958C9390930101DECF10920101AE
S1090180DBCFF894FFCF71
S9030000FC
